{"contracts/DailyTicket.sol":{"DailyTicket":{"abi":[{"anonymous":false,"inputs":[{"indexed":true,"internalType":"address","name":"player","type":"address"},{"indexed":false,"internalType":"uint256","name":"timestamp","type":"uint256"}],"name":"TicketClaimed","type":"event"},{"inputs":[],"name":"COOLDOWN","outputs":[{"internalType":"uint256","name":"","type":"uint256"}],"stateMutability":"view","type":"function"},{"inputs":[{"internalType":"address","name":"player","type":"address"}],"name":"canPlay","outputs":[{"internalType":"bool","name":"","type":"bool"}],"stateMutability":"view","type":"function"},{"inputs":[],"name":"claimDailyTicket","outputs":[],"stateMutability":"nonpayable","type":"function"},{"inputs":[{"internalType":"address","name":"","type":"address"}],"name":"lastPlay","outputs":[{"internalType":"uint256","name":"","type":"uint256"}],"stateMutability":"view","type":"function"},{"inputs":[{"internalType":"address","name":"player","type":"address"}],"name":"nextEligibleTimestamp","outputs":[{"internalType":"uint256","name":"","type":"uint256"}],"stateMutability":"view","type":"function"}],"evm":{"bytecode":{"linkReferences":{},"object":"608060405234801561001057600080fd5b50610260806100206000396000f3fe608060405234801561001057600080fd5b50600436106100575760003560e01c80630823d5f31461005c578063098ddabe14610084578063a2724a4d146100b2578063a7940def146100bc578063e5436f04146100cf575b600080fd5b61006f61006a3660046101da565b6100d9565b60405190151581526020015b60405180910390f35b6100a46100923660046101da565b60006020819052908152604090205481565b60405190815260200161007b565b6100a46201518081565b6100a46100ca3660046101da565b610112565b6100d7610147565b005b6001600160a01b03811660009081526020819052604081205480158061010b57506101076201518082610203565b4210155b9392505050565b6001600160a01b03811660009081526020819052604081205480820361013a57504292915050565b61010b6201518082610203565b610150336100d9565b6101925760405162461bcd60e51b815260206004820152600f60248201526e434f4f4c444f574e5f41435449564560881b604482015260640160405180910390fd5b3360008181526020818152604091829020429081905591519182527f396b5ffff46457e3c237a58913543838900ffa6e2c10cd58997e5b173bd21f4b910160405180910390a2565b6000602082840312156101ec57600080fd5b81356001600160a01b038116811461010b57600080fd5b8082018082111561022457634e487b7160e01b600052601160045260246000fd5b9291505056fea264697066735822122001619fe15ba9ee8d207b0678e019a337093e8a4b401fdcc9a65bfb260ccbf01964736f6c63430008180033","opcodes":"PUSH1 0x80 PUSH1 0x40 MSTORE CALLVALUE DUP1 ISZERO PUSH2 0x10 JUMPI PUSH1 0x0 DUP1 REVERT JUMPDEST POP PUSH2 0x260 DUP1 PUSH2 0x20 PUSH1 0x0 CODECOPY PUSH1 0x0 RETURN INVALID PUSH1 0x80 PUSH1 0x40 MSTORE CALLVALUE DUP1 ISZERO PUSH2 0x10 JUMPI PUSH1 0x0 DUP1 REVERT JUMPDEST POP PUSH1 0x4 CALLDATASIZE LT PUSH2 0x57 JUMPI PUSH1 0x0 CALLDATALOAD PUSH1 0xE0 SHR DUP1 PUSH4 0x823D5F3 EQ PUSH2 0x5C JUMPI DUP1 PUSH4 0x98DDABE EQ PUSH2 0x84 JUMPI DUP1 PUSH4 0xA2724A4D EQ PUSH2 0xB2 JUMPI DUP1 PUSH4 0xA7940DEF EQ PUSH2 0xBC JUMPI DUP1 PUSH4 0xE5436F04 EQ PUSH2 0xCF JUMPI JUMPDEST PUSH1 0x0 DUP1 REVERT JUMPDEST PUSH2 0x6F PUSH2 0x6A CALLDATASIZE PUSH1 0x4 PUSH2 0x1DA JUMP JUMPDEST PUSH2 0xD9 JUMP JUMPDEST PUSH1 0x40 MLOAD SWAP1 ISZERO ISZERO DUP2 MSTORE PUSH1 0x20 ADD JUMPDEST PUSH1 0x40 MLOAD DUP1 SWAP2 SUB SWAP1 RETURN JUMPDEST PUSH2 0xA4 PUSH2 0x92 CALLDATASIZE PUSH1 0x4 PUSH2 0x1DA JUMP JUMPDEST PUSH1 0x0 PUSH1 0x20 DUP2 SWAP1 MSTORE SWAP1 DUP2 MSTORE PUSH1 0x40 SWAP1 KECCAK256 SLOAD DUP2 JUMP JUMPDEST PUSH1 0x40 MLOAD SWAP1 DUP2 MSTORE PUSH1 0x20 ADD PUSH2 0x7B JUMP JUMPDEST PUSH2 0xA4 PUSH3 0x15180 DUP2 JUMP JUMPDEST PUSH2 0xA4 PUSH2 0xCA CALLDATASIZE PUSH1 0x4 PUSH2 0x1DA JUMP JUMPDEST PUSH2 0x112 JUMP JUMPDEST PUSH2 0xD7 PUSH2 0x147 JUMP JUMPDEST STOP JUMPDEST PUSH1 0x1 PUSH1 0x1 PUSH1 0xA0 SHL SUB DUP2 AND PUSH1 0x0 SWAP1 DUP2 MSTORE PUSH1 0x20 DUP2 SWAP1 MSTORE PUSH1 0x40 DUP2 KECCAK256 SLOAD DUP1 ISZERO DUP1 PUSH2 0x10B JUMPI POP PUSH2 0x107 PUSH3 0x15180 DUP3 PUSH2 0x203 JUMP JUMPDEST TIMESTAMP LT ISZERO JUMPDEST SWAP4 SWAP3 POP POP POP JUMP JUMPDEST PUSH1 0x1 PUSH1 0x1 PUSH1 0xA0 SHL SUB DUP2 AND PUSH1 0x0 SWAP1 DUP2 MSTORE PUSH1 0x20 DUP2 SWAP1 MSTORE PUSH1 0x40 DUP2 KECCAK256 SLOAD DUP1 DUP3 SUB PUSH2 0x13A JUMPI POP TIMESTAMP SWAP3 SWAP2 POP POP JUMP JUMPDEST PUSH2 0x10B PUSH3 0x15180 DUP3 PUSH2 0x203 JUMP JUMPDEST PUSH2 0x150 CALLER PUSH2 0xD9 JUMP JUMPDEST PUSH2 0x192 JUMPI PUSH1 0x40 MLOAD PUSH3 0x461BCD PUSH1 0xE5 SHL DUP2 MSTORE PUSH1 0x20 PUSH1 0x4 DUP3 ADD MSTORE PUSH1 0xF PUSH1 0x24 DUP3 ADD MSTORE PUSH15 0x434F4F4C444F574E5F414354495645 PUSH1 0x88 SHL PUSH1 0x44 DUP3 ADD MSTORE PUSH1 0x64 ADD PUSH1 0x40 MLOAD DUP1 SWAP2 SUB SWAP1 REVERT JUMPDEST CALLER PUSH1 0x0 DUP2 DUP2 MSTORE PUSH1 0x20 DUP2 DUP2 MSTORE PUSH1 0x40 SWAP2 DUP3 SWAP1 KECCAK256 TIMESTAMP SWAP1 DUP2 SWAP1 SSTORE SWAP2 MLOAD SWAP2 DUP3 MSTORE PUSH32 0x396B5FFFF46457E3C237A58913543838900FFA6E2C10CD58997E5B173BD21F4B SWAP2 ADD PUSH1 0x40 MLOAD DUP1 SWAP2 SUB SWAP1 LOG2 JUMP JUMPDEST PUSH1 0x0 PUSH1 0x20 DUP3 DUP5 SUB SLT ISZERO PUSH2 0x1EC JUMPI PUSH1 0x0 DUP1 REVERT JUMPDEST DUP2 CALLDATALOAD PUSH1 0x1 PUSH1 0x1 PUSH1 0xA0 SHL SUB DUP2 AND DUP2 EQ PUSH2 0x10B JUMPI PUSH1 0x0 DUP1 REVERT JUMPDEST DUP1 DUP3 ADD DUP1 DUP3 GT ISZERO PUSH2 0x224 JUMPI PUSH4 0x4E487B71 PUSH1 0xE0 SHL PUSH1 0x0 MSTORE PUSH1 0x11 PUSH1 0x4 MSTORE PUSH1 0x24 PUSH1 0x0 REVERT JUMPDEST SWAP3 SWAP2 POP POP JUMP INVALID LOG2 PUSH5 0x6970667358 0x22 SLT KECCAK256 ADD PUSH2 0x9FE1 JUMPDEST 0xA9 0xEE DUP14 KECCAK256 PUSH28 0x678E019A337093E8A4B401FDCC9A65BFB260CCBF01964736F6C6343 STOP ADDMOD XOR STOP CALLER "},"methodIdentifiers":{"COOLDOWN()":"a2724a4d","canPlay(address)":"0823d5f3","claimDailyTicket()":"e5436f04","lastPlay(address)":"098ddabe","nextEligibleTimestamp(address)":"a7940def"}}}}}